:100000000C943A010C9459010C9459010C94590127
:100010000C9459010C9459010C9459010C945901F8
:100020000C9459010C9459010C9459010C945901E8
:100030000C9459010C9459010C9459010C945901D8
:100040000C9459010C9459010C9459010C945901C8
:100050000C9459010C9459010C9459010C94C52429
:100060000C9459010C9459010C9459010C945901A8
:100070000C9459010C9459010C9459010C94590198
:100080000C9459010C9459010C9459010C94590188
:100090000C9459010C945901000000000000005F0D
:1000A00000000003000300143E143E14242A7F2A9B
:1000B000124333086661364955225000050300009B
:1000C000001C2241000041221C0014083E081408B4
:1000D000083E0808005030000008080808080060C2
:1000E00060000020100804023E5149453E00040211
:1000F0007F00426151494622414949361814127F16
:100100001027454545393E494949320101710907E2
:100110003649494936264949493E003636000000ED
:10012000563600000814224100141414141400411F
:1001300022140802015109063E4159555E7E090903
:10014000097E7F494949363E414141227F41414133
:100150003E7F494949417F090909013E4141493AE8
:100160007F0808087F00417F4100304040403F7FCA
:10017000081422417F404040407F020C027F7F02F2
:1001800004087F3E4141413E7F090909061E2121A5
:10019000215E7F09090976264949493201017F011B
:1001A000013F4040403F1F2040201F7F2010207F04
:1001B00041221C224107087008076151494543004C
:1001C0007F41000002040810200000417F0004026B
:1001D0000102044040404040000102040020545409
:1001E00054787F4444443838444444443844444474
:1001F0007F385454541804047E0505085454543C64
:100200007F0804047800447D40002040443D007F86
:100210001028440000417F40007C047804787C086A
:1002200004047838444444387C1414140808141422
:10023000147C007C080404485454542004043F44B3
:10024000443C4040207C1C2040201C3C4030403C32
:1002500044281028440C5050503C4464544C4400F2
:100260000836414100007F0000414136080002018C
:100270000204020011241FBECFEFD0E2DEBFCDBFCB
:1002800011E0A0E0B1E0E8EAF1E500E00BBF02C058
:1002900007900D92A83BB107D9F725E0A8EBB1E094
:1002A00001C01D92A231B207E1F70E948B260C9487
:1002B000D2280C940000CF93DF93DB01FC019A015C
:1002C0002230310538F0CD91DD91C193D193225088
:1002D0003109F6CFDA01AE7FFB01EA0FFB1FA80F51
:1002E000B91F417055274E0F5F1FE417F50719F02E
:1002F00081918D93FACFDF91CF910895CF93DF93C2
:10030000EB01FB013996DC011E964D915D916D91DB
:100310007C915197452B462B472BA1F152962D915D
:100320003C915397D90180E090E05EE201964D91B7
:10033000403251F0453009F445EE8930910511F411
:1003400050833196408331968B30910579F7D901EE
:100350001B968C911B9788875C964D915D916D9152
:100360007C915F97488359836A837B8358968D91EC
:100370009C9159979D838C8356968D919C9157970C
:100380009F838E831082DF91CF910895FC0120819D
:10039000318121153105B1F0F901AF01619161326F
:1003A00070F06A33D1F7F90161914E175F0751F48C
:1003B000603341F42E5F3F4FFC013183208380E0A6
:1003C00090E008958FEF9FEF08950097D1F0DC0142
:1003D000ED91FC9111973097A1F02081222389F0B3
:1003E0002681378112968D919C9113972817390792
:1003F00041F481810E94F11D80FF06C083E090E0FE
:10040000089589E090E0089580E090E008954F928B
:100410005F926F927F92AF92BF92CF92DF92EF92F4
:10042000FF920F931F93CF93DF93EC018C8188236E
:1004300009F446C04AA45BA46CA47DA46E018EE2BC
:10044000C80ED11C01E010E0A3019201B601898120
:100450000E94F81E892B89F51C828E8D9F8DA8A184
:10046000B9A1B301A201481B590B6A0B7B0B8E8902
:100470009F89A88DB98D481759076A077B0700F532
:10048000AB80B12CE12CF12CC5018E199F0902978C
:10049000B8F08E899F89A88DB98D480E591E6A1EA5
:1004A0007B1E01E010E0A3019201B60189810E9448
:1004B000F81E8FEFE81AF80AE7CF81E090E002C05B
:1004C00080E090E0DF91CF911F910F91FF90EF902E
:1004D000DF90CF90BF90AF907F906F905F904F90E4
:1004E00008950F931F93CF93DF93EC010E940702AF
:1004F000009709F05DC08881833009F04CC08D8180
:10050000813009F048C0CE018E96FC019E01225D2B
:100510003D4FE217F30711F01192FBCF25E53AEAC0
:10052000FE01E45DFD4F3183208342E552E561E643
:1005300071E44EA75FA768AB79AB42E752E761E48D
:1005400071E67A9740835183628373834E855F851A
:1005500068897989349640835183628373834A859D
:100560005B856C857D85349640835183628373837C
:100570002A8D3B8D4C8D5D8D2F5F3F4F4F4F5F4FD1
:100580002AA73BA74CA75DA701E010E0BC01898129
:100590000E94F81E1D8240E050E060E089810E94C8
:1005A000631F31E020E0892B09F430E0832F922F84
:1005B000DF91CF911F910F910895AF92BF92CF928B
:1005C000DF92EF92FF920F931F93CF93DF93EC0193
:1005D0006A017B018AA59BA5ACA5BDA54817590753
:1005E0006A077B07F1F0CE010E9407025C010097C9
:1005F000D1F401E010E0A7019601BE01625D7F4FDA
:1006000089810E94AA1E892B39F0AA24A394B12CB7
:10061000CC24CA94DC2C7601CAA6DBA6ECA6FDA6E7
:1006200002C0A12CB12CC501DF91CF911F910F9178
:10063000FF90EF90DF90CF90BF90AF9008950F9311
:100640001F93CF93DF93EC011C820FEF1FEF9801F4
:100650000AA71BA72CA73DA70E94DD02892B11F535
:10066000FE01E45DFD4F8081918185359A4AE1F478
:10067000E85CF14040815181628173817727463483
:1006800051446445710591F0C058DF4F488159814C
:100690006A817B81772781E0463451446445710546
:1006A00031F404C083E003C082E001C080E0DF9148
:1006B000CF911F910F9108952F923F924F925F9289
:1006C0006F927F928F929F92AF92BF92CF92DF9262
:1006D000EF92FF920F931F93CF93DF93CDB7DEB7C7
:1006E0006D970FB6F894DEBF0FBECDBF6C01CB0186
:1006F000B42ED6011D921C920E94C6017C0197FD6A
:1007000023C2FC01EE0FFF1FE654FE4F0081118152
:100710000115110509F41BC2F60111830083D801EC
:100720008C91882361F011968C910E94F11D80FDBF
:1007300006C0BB2009F40EC282FD12C20BC2F80132
:100740001082E1828E2D0E94F81D80FD06C2BB2022
:1007500011F082FD05C240E050E0BA01C8010E94DC
:100760001F03813009F040C0FE01319620E030E0E7
:10077000C801820F931FDC01A051BE4F4C9144234E
:1007800039F014968D919D910D90BC91A02D03C0D0
:1007900080E090E0DC0181939193A193B193205F7D
:1007A0003F4F2034310521F76E01F1E1CF0ED11C0E
:1007B0009E012F5F3F4F7901D7014D905D906D9065
:1007C0007D907D01411451046104710441F0B30135
:1007D000A201C8010E941F03811102C010C082E063
:1007E000EC14FD0449F703C0412C512C3201833035
:1007F00009F4B9C1882319F08DE090E0B6C1F80181
:1008000081AD92AD81159240B9F7F801EC5BFF4FD5
:10081000C080D180E12CF12CC114D104E104F10499
:1008200029F43E96C080D180E280F380D8015696AC
:10083000CD92DD92ED92FC925997DE964C91DE9727
:1008400013964C9313978FEF840F8230A8F6DB96A4
:10085000EC91DB97E98B1296EC931297EE2361F201
:100860002E2F30E0C901019782239323892B21F693
:10087000F801FF962080318019963C922E921897AD
:10088000C1018F709927892B09F0B6CF32968080ED
:100890009180A12CB12C81149104A104B10429F4FC
:1008A0003D9680809180A280B380D801DC96ED9146
:1008B000FC91DD97309709F49FCFA42FB0E0A701FA
:1008C00096010E94CE266E8B7F8B888F998F9F0119
:1008D00040E050E02A8F3B8F4C8F5D8FC10164E078
:1008E000969587956A95E1F7280F391F411D511D8F
:1008F0008E899F89A88DB98D280F391F4A1F5B1FCC
:100900002A8B3B8B4C8B5D8B82169306A406B50617
:1009100008F472CFC501B401621B730B840B950BF5
:10092000E9892E2F30E040E050E00E94AC262115EE
:1009300031054105510509F45FCF263FFFE03F0730
:100940004105510548F0263F8FEF38074105510515
:1009500030F492E0998B05C0A1E0A98B02C0B3E00E
:10096000B98B49015A01E2E08E0E911CA11CB11C09
:10097000D80152968D929D92AD92BC925597F801F6
:10098000428E538E648E758E8A8D9B8DAC8DBD8DFF
:10099000840D951DA61DB71D868F978FA0A3B1A3AB
:1009A0004A895B896C897D89440D551D661D771DBB
:1009B00046A357A360A771A7F989F330C9F4232888
:1009C00009F01ACFF801E65AFF4F80819181A28188
:1009D000B381F80182A393A3A4A3B5A3C501B40175
:1009E00052E0660F771F881F991F5A95D1F72DC0C7
:1009F000232809F401CF2E893F89488D598D820F14
:100A0000931FA41FB51FF80182A393A3A4A3B5A3AA
:100A1000F989F23039F4C501B401660F771F881FD8
:100A2000991F13C0A3E0B0E0A50194010E94CE2657
:100A3000969587957795679521E082229924AA2437
:100A4000BB24680D791D8A1D9B1DDC01CB018150E3
:100A50009E4FAF4FBF4F29E0B695A79597958795C5
:100A60002A95D1F7C816D906EA06FB0608F4C4CEC3
:100A70008FEF9FEFDC01F80186879787A08BB18B02
:100A800082879387A487B58780E88583F989F330C7
:100A900009F049C0F801E25AFF4F80819181019726
:100AA00009F041C0B301A2014F5F5F4F6F4F7F4F0D
:100AB000C8010E94DD02892BB1F5D80115961C9260
:100AC000F801E45DFD4F8081918185359A4A59F5A1
:100AD000F80186A597A5A0A9B1A982359245A1469E
:100AE000B14409F5F801EE5EFD4F80819181A2814C
:100AF000B38182379247A144B146A9F434968081EC
:100B00009181A281B381F80186879787A08BB18BF1
:100B1000E65EFD4F80819181A281B381F8018287D9
:100B20009387A487B587E989D801EC938091B801B0
:100B30009091B90101969093B9018093B8011796ED
:100B40009C938E93169706C08BE090E00EC08CE0CD
:100B500090E00BC080E090E008C083E090E005C02A
:100B60008AE090E002C081E090E06D960FB6F894C4
:100B7000DEBF0FBECDBFDF91CF911F910F91FF90D0
:100B8000EF90DF90CF90BF90AF909F908F907F902D
:100B90006F905F904F903F902F9008950F931F9309
:100BA000FC014250510961097109028913892489A4
:100BB000358902501109210931094017510762078F
:100BC000730778F4A281B0E09A01AB010E94CE26AF
:100BD00006A117A120A531A5600F711F821F931FC9
:100BE00003C060E070E0CB011F910F910895AF92B8
:100BF000BF92CF92DF92EF92FF920F931F93CF930A
:100C0000DF93EC016A017B014230510561057105FA
:100C100008F4A8C08A899B89AC89BD8948175907FF
:100C20006A077B0708F09EC08881823009F44BC0B8
:100C3000833009F46CC0813009F094C05A01B69435
:100C4000A794A40EB51EC501892F992786954E8DB0
:100C50005F8D68A179A1480F591F611D711DCE01DB
:100C60000E94DD02892B21F06FEF7FEFCB017EC068
:100C700085010F5F1F4FF501F170EC0FFD1FB6A44A
:100C8000C801892F992786954E8D5F8D68A179A11E
:100C9000480F591F611D711DCE010E94DD02892B75
:100CA00019F7F801F170EC0FFD1F86A56B2D70E0B0
:100CB000782BC0FE06C0C4E076956795CA95E1F72B
:100CC00023C07F7021C0452F562F672F77278E8D29
:100CD0009F8DA8A1B9A1480F591F6A1F7B1FCE0184
:100CE0000E94DD02892B09F0BFCFCC0CDD1CEE1C6D
:100CF000FF1CE894C0F881E0D822EE24FF24FE0116
:100D0000EC0DFD1D66A577A580E090E02FC0F7E013
:100D10007695679557954795FA95D1F78E8D9F8D66
:100D2000A8A1B9A1480F591F6A1F7B1FCE010E94BD
:100D3000DD02892B09F098CFE2E0CC0CDD1CEE1C23
:100D4000FF1CEA95D1F78CEFC82281E0D822EE246F
:100D5000FF24FE01EC0DFD1D66A577A580A991A9D4
:100D60009F7004C061E070E080E090E0DF91CF917F
:100D70001F910F91FF90EF90DF90CF90BF90AF90B9
:100D80000895AF92BF92CF92DF92EF92FF920F93AE
:100D90001F93CF93DF93EC018B017D836C83CE8017
:100DA000DF80E884F98481E0C816D104E104F1040D
:100DB00019F482E090E084C0E881F9818289938906
:100DC000A489B589C816D906EA06FB0690F7C114AE
:100DD000D104E104F104B9F48081833041F482A1AB
:100DE00093A1A4A1B5A10097A105B10551F48085F7
:100DF000918508171907E8F662A173A184A195A14E
:100E000031C06C017D01A28080E1A89E50011124B7
:100E100088819981B701A6010A151B0508F10E9476
:100E2000F7056B017C018FEFC816D806E806F806B7
:100E300009F444C082E0C816D104E104F10408F4C6
:100E4000B8CFE881F98182899389A489B589C816C8
:100E5000D906EA06FB0608F0ACCF0A191B09D8CF61
:100E60000E94CE05CA86DB86EC86FD86611571057B
:100E70008105910509F49DCF980154E03695279599
:100E80005A95E1F7DC01CB01820F931FA11DB11D23
:100E90008E879F87A88BB98B0F70112765E0000F95
:100EA000111F6A95E1F7025D1F4F88819981800FBC
:100EB000911F9B8B8A8B80E090E002C081E090E0E4
:100EC000DF91CF911F910F91FF90EF90DF90CF9026
:100ED000BF90AF900895CF93DF93EC016C817D813B
:100EE0000E94C1060097E1F44E855F856889798983
:100EF000888199810E94DD02009791F4EA89FB893B
:100F00009F01205E3F4FE217F30711F01192FBCFD4
:100F1000EA89FB8925EE2083E881F98121E0248399
:100F2000DF91CF9108954F925F926F927F928F924F
:100F30009F92AF92BF92CF92DF92EF92FF920F9368
:100F40001F93CF93DF93EC016A017B0128013901E4
:100F5000423051056105710508F4CCC08A899B892E
:100F6000AC89BD89481759076A077B0708F0C2C0DA
:100F70008881823009F463C0833009F483C08130F2
:100F800009F0B8C05A01B694A794A40EB51EC501C5
:100F9000892F992786954E8D5F8D68A179A1480F7D
:100FA000591F611D711DCE010E94DD02009709F0DD
:100FB000A3C085010F5F1F4FF501F170EC0FFD1FFE
:100FC0004601570131E083229924AA24BB24C0FEA4
:100FD00008C026A52F7030E1439EC0011124282BA4
:100FE00001C0242D26A781E08C834E8D5F8D68A1E2
:100FF00079A1C801892F99278695480F591F611D2E
:10100000711DCE010E94DD02009709F075C0F80144
:10101000F170EC0FFD1F89288A288B2849F0B4E075
:101020007694679457944794BA95D1F7242D05C0C8
:1010300026A5207F352D3F70232B26A758C0452F8E
:10104000562F672F77278E8D9F8DA8A1B9A1480FA6
:10105000591F6A1F7B1FCE010E94DD02009709F015
:101060004BC0CC0CDD1CEE1CFF1CE894C0F821E04A
:10107000D222EE24FF24F601BE96EC0FFD1F518212
:10108000408235C0E7E07695679557954795EA9594
:10109000D1F78E8D9F8DA8A1B9A1480F591F6A1F46
:1010A0007B1FCE010E94DD02009731F572E0CC0C6F
:1010B000DD1CEE1CFF1C7A95D1F73CEFC32231E01A
:1010C000D322EE24FF24F601BE96EC0FFD1F4081D3
:1010D000518162817381442755276627707F442997
:1010E000552966297729408351836283738321E0E0
:1010F0002C8302C082E090E0DF91CF911F910F918D
:10110000FF90EF90DF90CF90BF90AF909F908F9027
:101110007F906F905F904F9008954F925F926F9283
:101120007F928F929F92AF92BF92CF92DF92EF9277
:10113000FF920F931F93CF93DF93EC012A013B01A2
:10114000411551056105710599F48A849B84AC842D
:10115000BD8481149104A104B10451F14A895B89D1
:101160006C897D8984169506A606B70608F524C005
:101170000E94F705623071058105910508F495C05C
:101180006F3F2FEF72078207920729F44FEF3FEF6F
:101190002FEF9FEF8FC0CA88DB88EC88FD886C1525
:1011A0007D058E059F0508F482C05301420104C0ED
:1011B000812C912C54018394750164018FEFC81A1E
:1011C000D80AE80AF80A4A895B896C897D89C416BD
:1011D000D506E606F70680F022E082169104A10407
:1011E000B10428F440E030E020E090E063C052E039
:1011F000C52ED12CE12CF12CB701A601CE010E9405
:10120000F705611571058105910599F06F3F2FEF85
:1012100072078207920709F4B9CF61307105810521
:10122000910509F442C0C814D904EA04FB0431F65C
:10123000D9CF0FEF1FEF2FEF3FE0B701A601CE018F
:101240000E949307009771F54114510461047104E1
:10125000D1F4CA86DB86EC86FD864E855F8568897B
:1012600079894F3F8FEF580768077807B1F04150F1
:101270005109610971094E875F87688B798B8D8170
:1012800081608D830AC097018601B301A201CE015E
:101290000E9493070097E9F205C04C2D3D2D2E2D9D
:1012A0009F2D08C0019709F471CF41E09CCF462FD4
:1012B000372F282F642F732F822FDF91CF911F910B
:1012C0000F91FF90EF90DF90CF90BF90AF909F90E5
:1012D0008F907F906F905F904F9008957F928F9244
:1012E0009F92AF92BF92CF92DF92EF92FF920F93B5
:1012F0001F93CF93DF93EC016B010C811D810F5F76
:101300001F4F0115110519F484E090E0E6C08E85A9
:101310009F85A889B9890097A105B105A9F378012E
:101320002FE0E222FF24E114F10409F0C1C001968C
:10133000A11DB11D8E879F87A88BB98B4A855B85C0
:101340006C857D8588819981FC0141155105610578
:10135000710531F48085918508171907A8F6A8C092
:10136000228130E021503109F801A4E0F695E7959B
:10137000AA95E1F72E233F23232B09F099C00E9461
:10138000F7054B015C01623071058105910518F488
:1013900082E090E0A2C06F3F2FEF720782079207B2
:1013A00019F481E090E099C088819981FC0142891B
:1013B00053896489758984169506A606B70608F4CC
:1013C00069C0CD2809F4A0CF4A855B856C857D85F1
:1013D0000E948D084B015C01611571058105910525
:1013E00009F479C0613071058105910589F26F3F7B
:1013F0002FEF720782079207A1F2888199810E94DC
:101400000702892B71F688819981FC01BE96825D65
:101410009D4FE817F90711F01192FBCFC880D980D2
:10142000B501A401C6010E94CE05F60162A773A70B
:1014300084A795A7C12CD12C77247394E881F981D6
:10144000828190E0C816D906C8F474828881998197
:101450000E940702892B09F0A4CFE881F98182A5B7
:1014600093A5A4A5B5A50196A11DB11D82A793A71B
:10147000A4A7B5A7FFEFCF1ADF0AE0CF82A593A5F7
:10148000A4A5B5A58C199D09A109B10982A793A7A7
:10149000A4A7B5A78A869B86AC86BD86B501A401A4
:1014A000888199810E94CE056E877F87888B998B72
:1014B0001D830C8375E0EE0CFF1C7A95E1F72EE29C
:1014C000E20EF11C888199818E0D9F1D9B8B8A8B6A
:1014D00080E090E002C087E090E0DF91CF911F9123
:1014E0000F91FF90EF90DF90CF90BF90AF909F90C3
:1014F0008F907F9008958F929F92AF92BF92CF92DC
:10150000DF92EF92FF920F931F93CF93DF93EC0143
:101510008B01DB018C918F3211F08C3511F40F5F50
:101520001F4F1E821F8218861986F8018081803223
:1015300040F460E070E0CE010E94C1061B8A1A8A66
:1015400023C130E2F32E45E0E42E4801D8018C910E
:101550000F5F1F4F8F32C9F38C35B9F3EC89FD89CA
:10156000CF019F01255F3F4F8217930721F0DC01D8
:10157000FD92CD01F9CF80E090E060E070E028E0DE
:1015800030E0A12C8B010F5F1F4FA401460F571FA6
:10159000DA01BC90B0E2BB1508F054C04FE2B416BB
:1015A00009F450C0ACE5BA1609F44CC0BEE2BB1653
:1015B00009F4E0C08217930708F0C1C0B7FE03C06A
:1015C0004A2D4360A42E4FE74B0D4F3120F040E2EF
:1015D0004B0D4D3130F56E5F7F4F080D191DD80151
:1015E000DC9040EC4D0D4F3328F040E84D0D4D3769
:1015F00008F0A5C0A901415051098417950708F0CA
:101600009EC0AC014F5F5F4F8F01080F191FD801BB
:10161000BC9202964E0F5F1FDA01DC928B01B8017B
:10162000B1CF6B2D70E043E351E0DA01CD90AD0115
:10163000CC2009F487C0DD24C7FCD094C616D70699
:10164000A1F77DC0080D191DB0E2BB1510F044E0F4
:1016500001C040E0892B09F472C08081853E09F405
:10166000E0822830310511F4AA0CAA0C8A2D83706F
:10167000813009F440618A2D8C70843009F448600F
:10168000438760E070E0CE010E94C106009741F5FB
:101690004E855F8568897989888199810E94DD02FC
:1016A0000097F1F4EA89FB8980818823A1F0838582
:1016B00083FD0BC0AC89BD89CF010B96E817F907F4
:1016C00069F031912D913217C9F360E070E0CE01DD
:1016D0000E946E09DBCF84E090E002C080E090E0E1
:1016E000EC89FD892385009739F08430910509F054
:1016F0004BC022FF21C048C022FD46C0EA89FB89B9
:10170000838584FF19C0428D538D60E070E0A8810D
:10171000B9818C91833059F484899589A0E0B0E037
:10172000DC0199278827482B592B6A2B7B2B4E836A
:101730005F836887798709CF85E090E025C086E0E0
:1017400090E022C04FEB4B0D4A3120F4BA2DB2602D
:10175000AB2E09C04FE94B0D4A3128F44A2D4160A8
:10176000A42EA0EEBA0EAF01480F591FDA01BC92A9
:10177000019655CF2830310511F7AA0CAA0C88E044
:1017800090E02BE030E04BCFDF91CF911F910F9194
:10179000FF90EF90DF90CF90BF90AF909F908F9091
:1017A0000895CF93DF93EC0124E030E04E855F8510
:1017B00068897989411551056105710509F18881AB
:1017C00099810E94DD02009739F5EA89FB89208121
:1017D000222301F13385253E49F02E3239F0232FA3
:1017E0002F732F3019F02F712830C1F460E070E0B2
:1017F000CE010E946E09009779F420E030E0D6CF48
:10180000C9012115310551F01E861F86188A198AD3
:10181000C90104C084E090E09C01F6CFDF91CF9134
:1018200008950F931F93CF93DF93EC0160E070E076
:101830000E94C1068C010097C1F44E855F856889BE
:101840007989888199810E94DD028C01009769F471
:10185000EA89FB898081853E71F0882361F061E02F
:1018600070E0CE010E946E09E5CF0430110519F534
:1018700007E010E020C04E855F85688979898881FE
:1018800099810E94DD028C010097A9F4EA89FB8905
:10189000CF018096E817F90711F01192FBCF6C8900
:1018A0007D894BE050E08A899B890E945B01E88139
:1018B000F98181E08483C801DF91CF911F910F915D
:1018C00008958F929F92AF92BF92CF92DF92EF9244
:1018D000FF920F931F93CF93DF93EC016A017B017B
:1018E000423051056105710508F453C04A895B898E
:1018F0006C897D89C416D506E606F70608F049C04E
:101900004A895B896C897D89C416D506E606F70687
:1019100060F4B701A601CE010E94F7054B015C01FE
:10192000611571058105910519F480E090E033C0DF
:1019300081E088169104A104B10459F18FEF881653
:101940009806A806B80611F100E010E09801B7016A
:10195000A601CE010E9493070097E9F44E855F85AA
:10196000688979894F3F8FEF58076807780759F0E2
:101970004F5F5F4F6F4F7F4F4E875F87688B798BCD
:101980008D8181608D8375016401BACF81E090E023
:1019900002C082E090E0DF91CF911F910F91FF9004
:1019A000EF90DF90CF90BF90AF909F908F90089571
:1019B000CF93DF93CDB7DEB727970FB6F894DEBF8E
:1019C0000FBECDBF9C838B837E836D837A836983B7
:1019D000CE0101964F830E94C6014F8197FD24C01E
:1019E000880F991FFC01E654FE4F0190F081E02D15
:1019F000309709F01082EB81FC81309709F010825A
:101A00002B813C81FC01E654FE4F31832083232B44
:101A100071F0413061F440E0BE016B5F7F4FCE0159
:101A200003960E945C0305C08BE090E002C080E05A
:101A300090E027960FB6F894DEBF0FBECDBFDF91C2
:101A4000CF9108954F925F926F927F929F92AF9243
:101A5000BF92CF92DF92EF92FF920F931F93CF939B
:101A6000DF93CDB7DEB7A4970FB6F894DEBF0FBEF5
:101A7000CDBF5C017CA36BA3F42E009709F4F7C0E3
:101A8000DC011D921C924E71BE016D5D7F4FCE0137
:101A900001960E945C03009709F0F4C0CE014796BE
:101AA0009E8B8D8B6BA17CA146970E947B0A0B8934
:101AB0001C89009729F40115110511F486E090E0C6
:101AC000BF2DBF719B2E2F2D2C7109F471C0009773
:101AD00079F08430910521F4CE0101960E94110C19
:101AE000E92DE8609E2E0B891C89009749F0CAC039
:101AF000D8011B968C91817109F0C2C0F2FCBAC06A
:101B000093FE62C080E090E0A9E6B5E4F801868724
:101B10009787A08BB18B1386D801148E158E168EE5
:101B2000178EE981FA815A96CD90DC905B97E12C73
:101B3000F12C8081833069F454964D915C915597D6
:101B400060E070E0BA0155274427C42AD52AE62A66
:101B5000F72AD8015B961C921E925A9755961C92B2
:101B60001E92549781E08483C114D104E104F104EE
:101B700059F142A453A464A475A4B701A601CF01EE
:101B80000E94610C009709F07DC089819A81B1E0C3
:101B9000CB1AD108E108F108FC01C286D386E4869D
:101BA000F586B301A2010E94DD02009769F06AC0C8
:101BB000009709F067C0D8011B968C9184FD5DC029
:101BC000F1FE02C080FD5CC093FE03C0B92DB0627F
:101BD0009B2EE980FA80F70142A553A564A575A55F
:101BE000D5015A964D935D936D937C935D975F9667
:101BF0001C930E935E9714969C92149715961C92C4
:101C0000F801828D938DA0E0B0E0F70120812330B0
:101C100061F4F8014489558960E070E0BA01552704
:101C20004427842B952BA62BB72BF5018687978706
:101C3000A08BB18BF801848D958DA68DB78DF501A4
:101C400082879387A487B5871682178210861186AC
:101C5000168A178A108E118EF182E082D7011696AD
:101C60008D919C9117979383828380E001C089E0D6
:101C700090E008C088E090E005C084E090E002C0F9
:101C800087E090E0A4960FB6F894DEBF0FBECDBFFC
:101C9000DF91CF911F910F91FF90EF90DF90CF9048
:101CA000BF90AF909F907F906F905F904F900895FE
:101CB0002F923F924F925F926F927F928F929F925C
:101CC000AF92BF92CF92DF92EF92FF920F931F934A
:101CD000CF93DF93EC015B017A011901F9011182C5
:101CE00010820E94E501009709F010C18D818823C0
:101CF00011F090E00BC18C8180FF06C18A859B8525
:101D0000AC85BD854E815F8168857985841B950B87
:101D1000A60BB70BA70160E070E084179507A60734
:101D2000B70708F076C07C0174C04E815F8168857A
:101D30007985DB01CA019170AA27BB27892B8A2BE1
:101D40008B2B09F0B2C088819981FC01128111505E
:101D50002A013B0129E076946794579447942A9589
:101D6000D1F7142109F45AC0888099804A895B8987
:101D70006C897D89C4010E94CE05611571058105BC
:101D8000910509F46BC02B013C01410E511C611CF3
:101D9000711C6701CD2CDD24C694C114D10409F453
:101DA00080C0F4018281212F30E0A601420F531F31
:101DB00090E08417950718F46C01C21AD30A8601C3
:101DC000A3019201B501F40181810E94AA1E892B11
:101DD00009F081C0E881F9818481811144C0DC2C43
:101DE000CC24DD0CAC0CBD1C8E819F81A885B985EF
:101DF0008C0D9D1DA11DB11D8E839F83A887B98762
:101E0000F101808191818C0D9D1D91838083EC185F
:101E1000FD08E114F10409F088CF73C0452B462B6F
:101E2000472B29F46E857F858889998906C04A8960
:101E30005B896C897D890E94F70562307105810597
:101E4000910560F06F3FFFEF7F078F079F0709F451
:101E500042C06A8B7B8B8C8B9D8B86CF82E08D837F
:101E600082E090E053C082A593A5A4A5B5A58419EE
:101E70009509A609B709A60160E070E084179507E7
:101E8000A607B70708F0ABCFBF01625D7F4F982F61
:101E90008827990F40E052E08A0D9B1D0E945B014C
:101EA0009ECF4E8A5F8A688E798E8E819F819170D7
:101EB00020E032E0281B390B67012E153F0508F49E
:101EC00069014E895F89688D798D888199810E9429
:101ED000DD02892B29F081E08D8381E090E016C03E
:101EE0008E819F81A885B9859170AA27BB278E9680
:101EF00068817981680F791FA601C5010E945B0185
:101F000071CF80E090E002C087E090E0DF91CF9158
:101F10001F910F91FF90EF90DF90CF90BF90AF9007
:101F20009F908F907F906F905F904F903F902F90F9
:101F300008952F923F924F925F926F927F928F926D
:101F40009F92AF92BF92CF92DF92EF92FF920F9348
:101F50001F93CF93DF93EC015B017A011901F90123
:101F6000118210820E94E501009709F06DC18D81F8
:101F7000882311F090E068C18C8181FF63C18E815C
:101F80009F81A885B985AC01BD014E0D5F1D611D06
:101F9000711D481759076A077B0708F0A3C0E12C99
:101FA000F12CA0C04E815F8168857985DB01CA0173
:101FB0009170AA27BB27892B8A2B8B2B09F00CC188
:101FC000E881F981128111502A013B01A9E0769440
:101FD000679457944794AA95D1F7142109F487C0C0
:101FE00088819981FC0142A453A464A475A44E89FC
:101FF0005F89688D798D441655066606770609F463
:10200000C4C0888099804A895B896C897D89C401B4
:102010000E94CE05611571058105910509F4BBC0CB
:102020002B013C01410E511C611C711C6701CD2C20
:10203000DD24C694C114D10409F4B2C0F401828134
:10204000212F30E0A601420F531F90E0841795071F
:1020500018F46C01C21AD30A8601A3019201B501DA
:10206000F40181810E94F81E892B09F0CBC0888180
:102070009981FC0142A553A564A575A5441955098C
:10208000660977092601612C712C441555056605F2
:10209000770570F4BA01762F6627770F6A0D7B1DDE
:1020A00040E052E08E960E945B01E881F981148243
:1020B000DC2CCC24DD0CAC0CBD1C8E819F81A88552
:1020C000B9858C0D9D1DA11DB11D8E839F83A88791
:1020D000B987F101808191818C0D9D1D9183808351
:1020E000EC18FD08E114F10409F05CCF1DC0452B8C
:1020F000462B472B69F46E857F8588899989611500
:1021000071058105910519F540E050E0BA0104C060
:102110004A895B896C897D89CF010E948D08611590
:1021200071058105910599F48E819F81A885B985F6
:102130004A855B856C857D85481759076A077B074B
:1021400008F07AC08A879B87AC87BD8775C06130ED
:10215000710581059105F9F06F3FFFEF7F078F074C
:102160009F0709F44FC06A8B7B8B8C8B9D8B4E84B1
:102170005F846888798845284628472809F030CF49
:102180006E877F87888B998B2BCF0E940702892BC4
:1021900009F437CF37C082E08D8382E090E054C0ED
:1021A0004E815F81688579858A859B85AC85BD85F3
:1021B000481759076A077B0758F0C4010E940702B5
:1021C000892B01F5E881F98142A653A664A675A67C
:1021D0004E8A5F8A688E798E8E819F81917020E011
:1021E00032E0281B390B67012E153F0508F4690101
:1021F0004E895F89688D798D888199810E94DD0281
:10220000892B29F081E08D8381E090E01DC08E81D3
:102210009F81A885B9859170AA27BB278E962881B2
:102220003981A601B501820F931F0E945B01E881ED
:10223000F98131E034833FCF8C8180628C8380E0F0
:1022400090E002C087E090E0DF91CF911F910F9165
:10225000FF90EF90DF90CF90BF90AF909F908F90C6
:102260007F906F905F904F903F902F900895EF92E6
:10227000FF920F931F93CF93DF9300D0CDB7DEB7BC
:102280008C01FC018281938197FD2DC07C01FFEFC1
:10229000EF1AFF0AF801E80FF91F66832DE3E21633
:1022A000F104CCF09E012F5F3F4FA701B8016A5F98
:1022B0007F4FF801808191810E94990F81E090E029
:1022C00029813A812E153F0511F480E090E0EE243B
:1022D000FF24E81AF90AF801F382E28284819581E9
:1022E0000196958384830F900F90DF91CF911F917A
:1022F0000F91FF90EF900895CF93DF93EC010E9430
:10230000E5010097C9F52C8125FF36C04A8D5B8D0C
:102310006C8D7D8D888199810E94DD02009761F529
:10232000EE8DFF8D8385806283874A855B856C8512
:102330007D85448F558F668F778F4E855F85688941
:102340007989538F428F758B648B40E050E069E64A
:1023500075E4468B578B608F718F138A128A8C813C
:102360008F7D8C83E881F98181E0848388819981E4
:10237000DF91CF910C947102DF91CF910895CF93AB
:10238000DF93EC010E947C11009739F4CE010E948A
:10239000E501009711F419821882DF91CF91089519
:1023A0002F923F924F925F926F927F928F929F9265
:1023B000AF92BF92CF92DF92EF92FF920F931F9353
:1023C000CF93DF93CDB7DEB728970FB6F894DEBF73
:1023D0000FBECDBF1C014D835E836F8378870E9443
:1023E000E5014D815E816F817885009709F066C1B6
:1023F000D10115968C91882311F090E05FC1F10115
:10240000C284D384E484F584C416D506E606F706B0
:1024100018F06A017B0103C0848181FDFACFF101CC
:1024200046805780608471841682178210861186D8
:10243000C114D104E104F10421F4C12CD12C7601A2
:102440000FC1F10100811181D80112968C90912C5D
:10245000A12CB12C89E0880C991CAA1CBB1C8A9564
:10246000D1F74114510461047104D9F1B1E04B1A60
:10247000510861087108C701B601615071098109ED
:102480009109A50194010E94AC2629833A834B83CC
:102490005C83C301B201A50194010E94AC2689812D
:1024A0009A81AB81BC8182179307A407B507C8F056
:1024B00088279927DC0188199909AA09BB09842171
:1024C0009521A621B721F10186839783A087B18743
:1024D000C81AD90AEA0AFB0A4289538964897589AC
:1024E0002DC0D1011E964D915D916D917C915197BA
:1024F0004115510561057105D1F440E050E0BA0184
:10250000C8010E948D08AB01BC0141305105610535
:10251000710509F468C04F3FFFEF5F076F077F0742
:1025200009F45AC0F10146875787608B718BD1013E
:1025300052964D935D936D937C935597411551053C
:102540006105710509F479CF2CC042305105610550
:10255000710508F448C0D101ED91FC9182899389FD
:10256000A489B589481759076A077B07E0F5D101A7
:1025700052964D935D936D937C93559716968D91DE
:102580009D910D90BC91A02D880D991DAA1DBB1D7C
:10259000F10186839783A087B187C818D908EA0814
:1025A000FB088C149D04AE04BF0440F5F1012481A6
:1025B0008081918121FF1BC00E948D08AB01BC016D
:1025C0004115510561057105B9F04F3FFFEF5F07F8
:1025D0006F077F0709F0B9CF81E0D10115968C9381
:1025E00081E090E06BC082E0F10185832BC00E9406
:1025F000F705AB01BC01E9CF75016401F1018681EA
:102600009781A085B1858C0D9D1DAE1DBF1D868354
:102610009783A087B187D701C6019170AA27BB27EE
:10262000892B8A2B8B2B09F408CF808191810E9402
:10263000CE05611571058105910539F482E0D1015E
:1026400015968C9382E090E039C0B9E0F694E79457
:10265000D794C794BA95D1F7C60ED71EE81EF91EB7
:10266000F10186819781A085B185AC01BD015170D2
:1026700066277727452B462B472B69F046895789D4
:10268000608D718DC416D506E606F70621F0C68A60
:10269000D78AE08EF18EF101428553856485758578
:1026A000481759076A077B0738F482879387A487FE
:1026B000B58784818062848380E090E028960FB69D
:1026C000F894DEBF0FBECDBFDF91CF911F910F9168
:1026D000FF90EF90DF90CF90BF90AF909F908F9042
:1026E0007F906F905F904F903F902F900895EF9262
:1026F000FF920F931F93CF93DF93CDB7DEB7609711
:102700000FB6F894DEBF0FBECDBF7C01788B6F870C
:10271000009709F459C040E0BE01615F7F4FCE01D0
:102720000D960E945C03009709F04AC08D859E8536
:10273000D70111969C938E93CE01019655969C934A
:102740008E9354976F857889C7010E947B0A009702
:1027500079F5D7015296ED91FC9153973097E1F0BE
:10276000838584FF2BC0428D538D60E070E0AD8582
:10277000BE858C91833059F40489158920E030E0BE
:10278000980111270027402B512B622B732BF70147
:102790004683578360877187ED85FE8586819781A3
:1027A000F7019383828360E070E0C7010E94C10655
:1027B0008430910519F0009749F002C085E090E05F
:1027C000D7011D921C9204C089E001C080E090E016
:1027D00060960FB6F894DEBF0FBECDBFDF91CF91EC
:1027E0001F910F91FF90EF900895CF93DF93EC012D
:1027F0000E94E501009711F419821882DF91CF91B0
:102800000895CF92DF92EF92FF920F931F93CF9391
:10281000DF93CDB7DEB72C970FB6F894DEBF0FBEAF
:10282000CDBF8C016B010E94E5017C01009779F519
:10283000C114D10431F460E070E0C8010E94C10607
:1028400025C0CE010196F801958B848BC8010E94AA
:10285000D10B8430910531F4F80116861786108A61
:10286000118A02C0009791F4B601C8010E947E014E
:1028700060E070E0C8010E946E098430910531F477
:10288000F80116861786108A118A01C07C01C701DB
:102890002C960FB6F894DEBF0FBECDBFDF91CF915F
:1028A0001F910F91FF90EF90DF90CF900895EF92DE
:1028B000FF920F931F93CF93DF93CDB7DEB7A4970B
:1028C0000FB6F894DEBF0FBECDBF9CA38BA37B01D8
:1028D00040E0BE016D5D7F4FCE0101960E945C031A
:1028E0008C010097D9F4CE0147969E8B8D8B6BA1FE
:1028F0007CA146970E947B0A8C01009779F48B8912
:102900009C89892B49F0E114F10441F0B701CE0113
:1029100001960E947E0102C006E010E0C801A49664
:102920000FB6F894DEBF0FBECDBFDF91CF911F91E0
:102930000F91FF90EF9008952F923F924F925F92E8
:102940006F927F928F929F92AF92BF92CF92DF92BF
:10295000EF92FF920F931F93CF93DF93CDB7DEB724
:1029600027970FB6F894DEBF0FBECDBF9A83898339
:102970004B018A0140E0BE016F5F7F4FC8010E949A
:102980005C035C01D8010D911C91009709F0CAC04D
:10299000F80186859785A089B18942885388648823
:1029A0007588B301A20142505109610971094817A4
:1029B00059076A077B0730F0F40180839183A28373
:1029C000B383B0C0B081BF83B13099F542E0442EEB
:1029D000512C612C712CC12CD12C7601B301A20198
:1029E000C8010E94F7056F3FEFEF7E078E079E0735
:1029F00009F47DC0613071058105910509F47BC042
:102A0000672B682B692B29F4FFEFCF1ADF0AEF0A37
:102A1000FF0A2FEF421A520A620A720AF8018289EB
:102A20009389A489B589481659066A067B06B0F2CF
:102A300067C0468D578D60A171A1E0E0F0E01C8277
:102A40001B82C12CD12C76011801BEE22B0E311C49
:102A50008B819C81892BC1F4DB01CA010196A11DE8
:102A6000B11D8B839C83AD83BE83C8010E94DD02B0
:102A7000009709F044C0F1014B815C816D817E813A
:102A8000A0E0B2E0BC83AB832F81223081F42081AF
:102A90003181232B29F48FEFC81AD80AE80AF80AE3
:102AA0003296AB81BC811297BC83AB8314C080810A
:102AB0009181A281B381BF70892B8A2B8B2B29F442
:102AC000BFEFCB1ADB0AEB0AFB0A34968B819C81A1
:102AD00004979C838B8391E0491A5108610871081F
:102AE000411451046104710409F0B2CF09C0AA2451
:102AF000A394B12C05C022E0A22EB12C01C05C0130
:102B0000D8011E96CD92DD92ED92FC9251971596CA
:102B10008C911597816015968C93F401C082D182B7
:102B2000E282F382C50127960FB6F894DEBF0FBE8E
:102B3000CDBFDF91CF911F910F91FF90EF90DF906C
:102B4000CF90BF90AF909F908F907F906F905F904D
:102B50004F903F902F900895CF92DF92EF92FF9287
:102B60000F931F93CF93DF93EC010E94E5018C013B
:102B7000009709F071C08D81882319F0082F10E0AB
:102B80006BC02C8121FF62C04E815F816885798591
:102B90008A859B85AC85BD85481759076A077B07E1
:102BA00008F05AC04A875B876C877D8720622C8338
:102BB00088819981452B462B472B61F44E855F8593
:102BC000688979890E94610C8C011E861F86188A8B
:102BD000198A37C04A895B896C897D890E94F7050B
:102BE0006B017C018FEFC816D806E806F80689F15C
:102BF000E1E0CE16D104E104F10419F402E010E0A2
:102C000023C088819981FC0142895389648975892F
:102C1000C416D506E606F706F8F44A895B896C897E
:102C20007D890FEF1FEF2FEF3FE00E9493078C018C
:102C3000009751F4B701A601888199810E94610C27
:102C40008C010115110541F00D8306C007E010E06D
:102C500003C001E010E0F8CFC801DF91CF911F91D0
:102C60000F91FF90EF90DF90CF900895CF92DF9279
:102C7000EF92FF92CF93DF93CDB7DEB7EA970FB60F
:102C8000F894DEBF0FBECDBF9AAF89AF41E0BE0161
:102C9000675C7F4FCE0147960E945C03009709F066
:102CA0006EC0CE018D969CA78BA769AD7AAD469775
:102CB0000E947B0A009709F062C0E9A5FAA5309747
:102CC000E9F1238520FD59C0C28CD38CE12CF12C75
:102CD000AF89B88D8C91833059F484899589A0E0AF
:102CE000B0E0DC0199278827C82AD92AEA2AFB2ADA
:102CF00024FF27C0C114D104E104F104D9F146E155
:102D000050E0BE01695E7F4FCE0101960E945B01DB
:102D1000CF82D886E986FA8662E070E0CE0101961D
:102D20000E94C106009759F5CE0101960E94D10B71
:102D3000009719F18430910521F021C086E090E0E0
:102D40001EC0CE0147960E946B070097C1F4C114C4
:102D5000D104E104F10429F48F89988D0E94710255
:102D60000EC0B701A6018F89988D0E94610C009753
:102D700031F4F2CF82E090E002C087E090E0EA9682
:102D80000FB6F894DEBF0FBECDBFDF91CF91FF909D
:102D9000EF90DF90CF9008952F923F924F925F92E5
:102DA0006F927F928F929F92AF92BF92CF92DF925B
:102DB000EF92FF920F931F93CF93DF93CDB7DEB7C0
:102DC000AC970FB6F894DEBF0FBECDBF9CA38BA30C
:102DD00041E0BE016D5D7F4FCE0101960E945C0314
:102DE0008C01009709F0FCC0CE0147969E8B8D8B1D
:102DF0006BA17CA146970E947B0A8C01009739F158
:102E00008430910509F0ECC040E050E0BA018981BE
:102E10009A810E948D086B017C0161157105810505
:102E20009105C1F081E0C816D104E104F104A9F0D4
:102E30009FEFC916D906E906F90691F401E010E002
:102E4000B701A60189819A810E94610CC9C008E07E
:102E500010E0C6C007E010E0F3CF02E010E0F0CFD2
:102E600089819A810E9407028C01009749F70981A4
:102E70001A81B701A601C8010E94CE052B013C01B1
:102E80005801AEE2AA0EB11C4801B2ED8B1ABDEF9B
:102E90009B0AF501E815F90511F01192FBCFC50168
:102EA0000B96F50120E2E817F90711F02193FBCF0B
:102EB0006EE2362EF80136A680E181AF80E090E028
:102EC000A9E6B5E4EC5BFF4F80839183A283B383D3
:102ED0003496D182C082C701AA27BB278DA39EA3A7
:102EE000AFA3B8A736979183808340E250E0B50145
:102EF000C801825B9F4F0E945B01F801E15BFF4FBD
:102F000030824F81588569857A85E981FA8180818F
:102F1000833061F482A193A1A4A1B5A148175907F8
:102F20006A077B0719F440E050E0BA01D801A859BC
:102F3000BF4F11965C934E9316976D937C9332809E
:102F400022242394332049F189819A81B301A2017B
:102F50004F5F5F4F6F4F7F4FDC019A964D925D92AE
:102F60006D927C929D9714962C9249A75AA76BA7B5
:102F70007CA70E9407028C0149A55AA56BA57CA5D8
:102F8000009709F05DCFF501E815F90511F01192F0
:102F9000FBCF3A942A013B01D5CFCE0101960E9486
:102FA000110C8C01009709F04BCFEB89FC8980E173
:102FB000838780E090E0A9E6B5E4868B978BA08FAD
:102FC000B18FD38EC28E8DA19EA1958B848B89816A
:102FD0009A8121E0DC0114962C930E9471028C01ED
:102FE000C801AC960FB6F894DEBF0FBECDBFDF911F
:102FF000CF911F910F91FF90EF90DF90CF90BF90F6
:10300000AF909F908F907F906F905F904F903F9088
:103010002F9008950F931F93CF93DF93CDB7DEB713
:10302000A4970FB6F894DEBF0FBECDBF9CA38BA3B1
:10303000162F042F41E0BE016D5D7F4FCE0101963A
:103040000E945C03009711F5CE0147969E8B8D8BF5
:103050006BA17CA146970E947B0A0097B9F4EB898B
:10306000FC89309789F0402F4772842F8095938593
:1030700089234123842B838789819A8121E0FC0164
:1030800024830E94710202C086E090E0A4960FB6ED
:10309000F894DEBF0FBECDBFDF91CF911F910F918E
:1030A0000895EF92FF920F931F93CF93DF93CDB7C5
:1030B000DEB7C155D1090FB6F894DEBF0FBECDBF44
:1030C00060969FAF8EAF609762967FAF6EAF62974C
:1030D00041E0BE01625B7F4FCE0147960E945C03D8
:1030E000009709F0C5C08F89988D9A838983CE0196
:1030F0008E5B9F4F9CA78BA760966EAD7FAD609750
:103100008B970E947B0A009709F0B2C069A57AA547
:103110006115710509F496C0655F7F4F45E150E088
:10312000CE018D960E945B0146E150E0BE01695ED2
:103130007F4FCE0101960E945B01CE01805B9F4FC5
:103140000E94C60197FD81C062966EAD7FAD629709
:10315000CE0101960E947B0A009709F479C0843061
:10316000910509F085C0CE0101960E94110C0097CF
:1031700009F07EC0EB88FC8843E150E0BE01615D50
:103180007F4FC7010D960E945B018DA58062D7011C
:103190001B968C931B970F89188D81E0F80184830F
:1031A0001B968C9184FF5AC04D8D5E8D6F8D78A1DA
:1031B0008F819885A985BA85481759076A077B07C3
:1031C00009F44CC0D7015A964D915C915B9760E031
:1031D00070E08081833069F454968D919C9155976D
:1031E000A0E0B0E0DC0199278827482B592B6A2BF7
:1031F0007B2BC8010E94CE05AB01BC0141155105D6
:103200006105710541F1C8010E94DD02EF89F88D69
:10321000009771F5DF01A15BBF4F8C918E32F1F405
:103220004F81588569857A859F0128593F4FD9017B
:103230004D935C9326503109D9016D937C9381E0C5
:1032400084830CC084E090E013C08BE090E010C059
:1032500088E090E00DC082E090E00AC0CE01479681
:103260000E946B07009721F48F89988D0E9471024C
:10327000CF5ADF4F0FB6F894DEBF0FBECDBFDF9140
:10328000CF911F910F91FF90EF9008950F931F938F
:10329000CF93DF93CDB7DEB7A4970FB6F894DEBF18
:1032A0000FBECDBF9CA38BA38B0141E0BE016D5D22
:1032B0007F4FCE0101960E945C03009731F5CE014D
:1032C00047969E8B8D8B6BA17CA146970E947B0AB3
:1032D0000097D9F4EB89FC893097A9F0D8011696AC
:1032E0008D919C911797978B868B14968D919C91BD
:1032F0001597918F808F89819A8121E0FC01248329
:103300000E94710202C086E090E0A4960FB6F89485
:10331000DEBF0FBECDBFDF91CF911F910F910895FA
:103320006F927F928F929F92AF92BF92CF92DF92D5
:10333000EF92FF920F931F93CF93DF9300D000D0B3
:10334000CDB7DEB73C016B014A018C01E12CF12CB9
:1033500081E0C81AD1085801EC14FD04F4F49E0170
:103360002F5F3F4F41E050E0BE016D5F7F4FC401D2
:103370000E94580E29813A812130310571F48B81E8
:1033800058019FEFA91AB90AF8018083FFEFEF1ADD
:10339000FF0A8A3011F08501DECFF5011082EF2897
:1033A00019F480E090E001C0C3010F900F900F90DE
:1033B0000F90DF91CF911F910F91FF90EF90DF90D1
:1033C000CF90BF90AF909F908F907F906F90089517
:1033D000CF93DF93CDB7DEB7C854D1090FB6F894B9
:1033E000DEBF0FBECDBF7A8369831C821B821E8223
:1033F0001D82682FCE0101960E9437114B815C819E
:1034000057FF03C08FEF9FEF17C09E01295B3F4F0F
:10341000BE01695F7F4F89819A810E94990F892B34
:1034200089F72B813C8129968EAD9FAD299728176E
:10343000390741F78D819E81C85BDF4F0FB6F89445
:10344000DEBF0FBECDBFDF91CF9108950F931F93C5
:10345000CF93DF93CDB7DEB7C854D1090FB6F89438
:10346000DEBF0FBECDBF7A8369831C821B821E82A2
:103470001D828C01F80161918F01662329F0CE0134
:1034800001960E943711F6CF4B815C8157FF03C034
:103490008FEF9FEF17C09E01295B3F4FBE01695F11
:1034A0007F4F89819A810E94990F892B89F72B81FF
:1034B0003C8129968EAD9FAD29972817390741F792
:1034C0008D819E81C85BDF4F0FB6F894DEBF0FBEC3
:1034D000CDBFDF91CF911F910F9108952F923F9211
:1034E0004F925F926F927F928F929F92AF92BF9214
:1034F000CF92DF92EF92FF920F931F93CF93DF93C0
:10350000CDB7DEB7CA55D1090FB6F894DEBF0FBEEE
:10351000CDBFE396EEACFFACE397E1968EAD9FADE9
:10352000E1979A8389831C821B821E821D828E01F1
:103530000D581F4FD7016C91662309F468C165329D
:1035400021F0BFEFEB1AFB0AA0C0F7013180F0E3D6
:103550003F1208C0F7013396D70112963C902224FF
:1035600023940DC0BDE2F7013B1619F03296212CD1
:1035700006C03396D70112963C9082E0282EC12CCB
:10358000D12C7F0180ED830D8A3080F48AE0960192
:10359000829F6001839FD00C1124C30CD11C37FC87
:1035A000DA9490E3C91AD1083190EBCF832D8F7D47
:1035B0008C3439F4A22DA4602A2EBFEFEB1AFB0A3B
:1035C0003080332009F423C18FE9830D8A3118F448
:1035D00020EE230D01C0232D2F3409F45DC04CF4DF
:1035E000233409F443C0243499F0223409F452C03E
:1035F0004BC0253569F0283509F444C0233509F05E
:1036000043C0F801808091800E5F1F4FF40102C01B
:103610004AE043C05F01A818B90881918111FACF2F
:1036200021FC0DC0C501EFEFAE1ABE0A8C159D0539
:1036300030F460E2CE0101960E943711F3CFD4013D
:103640006D914D01662329F0CE0101960E9437113C
:10365000F6CFAC14BD0408F06DCF60E2CE01019648
:103660000E943711BFEFAB1ABB0AF3CF6801E2E04B
:10367000CE0ED11CD8016C91CE0101960E9437115B
:10368000860158CF40E109C0632DCE0101960E940A
:10369000371150CF42E001C048E0F80122FE09C0D6
:1036A00060817181828193810C5F1F4F243409F501
:1036B00014C03296D801243449F42D913C91B901BB
:1036C000882777FD8095982F8F0107C02D913C9119
:1036D000B90180E090E08F010CC097FF0AC090957F
:1036E0008095709561957F4F8F4F9F4FB22DB86039
:1036F0002B2EFE01E95BFF4F4F01A12CB12C442E74
:10370000512C612C712CA30192010E94AC26F62F42
:10371000E62FCA01B901FA303CF0A8E73A1202C01C
:10372000E7E201C0E7E0EF0FD50111966B96BFAF5E
:10373000AEAF6B97E05DD401ED934D01232B242BAD
:10374000252B61F06B962EAD3FAD6B972031310587
:1037500011F05901D8CFBFE0AB2EB12C23FE13C01E
:10376000E7E4F0E0EC0FFD1F6B962EAD3FAD6B97DD
:10377000E20FF31F3DE2308395012E5F3F4F6B96C2
:103780003FAF2EAF6B9720FE03C0A0E37A2E02C09E
:10379000F0E27F2E6B96AEACBFAC6B9721FC0FC0F6
:1037A00045013FEF831A930AAC14BD0438F4672D2A
:1037B000CE0101960E9437115401F2CF54016B964D
:1037C0002EAD3FAD6B97215031096B963FAF2EAFB9
:1037D0006B97E7E4F0E0EC0FFD1FE20FF31F608151
:1037E000CE0101960E9437116B962EAD3FAD6B97BF
:1037F000232B29F7AC14BD0408F09CCE672DCE0115
:1038000001960E9437113FEFA31AB30AF3CF4B8101
:103810005C8157FF03C08FEF9FEF17C09E01295AAD
:103820003F4FBE01695F7F4F89819A810E94990F46
:10383000892B89F72B813C8169968EAD9FAD699765
:103840002817390741F78D819E81C65ADF4F0FB681
:10385000F894DEBF0FBECDBFDF91CF911F910F91C6
:10386000FF90EF90DF90CF90BF90AF909F908F90A0
:103870007F906F905F904F903F902F90089523B16D
:1038800023B123B123B101970097C9F70895680FB9
:10389000791FFC012191CF0127FF02C02A9A01C0A4
:1038A0002A98299A299826FF02C02A9A01C02A98A4
:1038B000299A299825FF02C02A9A01C02A98299A94
:1038C000299824FF02C02A9A01C02A98299A299887
:1038D00023FF02C02A9A01C02A98299A299822FF18
:1038E00002C02A9A01C02A98299A299821FF02C069
:1038F0002A9A01C02A98299A299820FF02C02A9A58
:1039000001C02A98299A29988617970711F60895D1
:103910002A9A680F791F23B1299A299823FB222715
:1039200020F9220F1B992F5F299A2998220F1B99A2
:103930002F5F299A2998220F1B992F5F299A29987E
:10394000220F1B992F5F299A2998220F1B992F5F0D
:10395000299A2998220F1B992F5F299A2998220FBB
:103960001B992F5F299A2998FC012193CF01E61713
:10397000F70789F608950F931F93CF93DF931F9254
:10398000CDB7DEB708E813E161E070E0CE01019643
:103990000E94881C89818F3F49F084E690E00E9454
:1039A0003F1C015011090115110571F781E090E0EC
:1039B000012B11F480E090E00F90DF91CF911F91E7
:1039C0000F910895CF93DF931F92CDB7DEB7289A5A
:1039D00061E070E0CE0101960E94881C0F90DF919B
:1039E000CF910895CF93DF9300D01F92CDB7DEB76C
:1039F000289861E070E0CE0101960E94881C0E9428
:103A0000BB1C009739F48A839B830E94E21C8A8145
:103A10009B8102C081E090E00F900F900F90DF91AA
:103A2000CF910895CF92DF92EF92FF920F931F9361
:103A3000CF93DF9300D0CDB7DEB77C016B0108EEEA
:103A400013E061E070E0CE0101960E94881C89813C
:103A50008F3F81F089818E3FB9F4B601C7010E9482
:103A6000881C62E070E0CE0101960E94881C81E013
:103A700090E00CC084E690E00E943F1C01501109C8
:103A800001151105F1F6E6CF80E090E00F900F9060
:103A9000DF91CF911F910F91FF90EF90DF90CF902A
:103AA0000895DF92EF92FF920F931F93CF93DF93CE
:103AB000CDB7DEB727970FB6F894DEBF0FBECDBFE8
:103AC000182F042FF52EE62ED72E87FF09C040E0D1
:103AD00050E0BA0187E30E94511D8230B8F51F778C
:103AE0001C3051F4812F80648983DA82EB82FC825E
:103AF0000D83112369F008C00E94E21C0E94F21C91
:103B0000892B81F78FEF22C0183021F081E003C0AC
:103B100085E901C087E88E8366E070E0CE010196FA
:103B20000E94471C1C3031F461E070E0CE01079622
:103B30000E94881C1AE061E070E0CE0107960E94A6
:103B4000881C8F8187FF02C01150A9F727960FB6F6
:103B5000F894DEBF0FBECDBFDF91CF911F910F91C3
:103B6000FF90EF90DF900895FF920F931F93CF93F4
:103B7000DF9300D0CDB7DEB78C01F62E0E94BB1CC0
:103B8000009739F1F98261E070E0CE0101960E9460
:103B9000471C8DEFF816D9F060E072E0C8010E9472
:103BA000471C62E070E0CE0101960E94881C61E033
:103BB00070E0CE0101960E94881C89818F7131E0EE
:103BC00020E0853009F030E0832F922F02C081E0A1
:103BD00090E00F900F90DF91CF911F910F91FF9088
:103BE0000895811103C080910001089581E0089536
:103BF000EF92FF920F931F93CF93DF9300D000D0EB
:103C0000CDB7DEB7811180C080E197E20E943F1CF2
:103C1000209A289A219A2998229A1AE061E070E065
:103C2000CE0101960E94881C1150C1F740E050E07F
:103C3000BA0180E00E94511D813009F059C04AEA62
:103C400051E060E070E088E00E94511D813019F57C
:103C500064E070E0CE0101960E94881C8B81813067
:103C600009F046C08C818A3A09F042C008EE13E0A0
:103C700040E050E060E070E489EA0E94511D882332
:103C800079F188EE93E00E943F1C01501109011563
:103C9000110571F72DC040E050E0BA0189EA0E9499
:103CA000511D823028F499EAE92E22E0F22E04C058
:103CB000EE24E394FF24F39408EE13E040E050E098
:103CC000BA018E2D0E94511D882379F188EE93E070
:103CD0000E943F1C015011090115110579F708C018
:103CE00040E050E0BA018AE30E94511D882371F040
:103CF000F12CF092BC0111E0F11010E010930001E2
:103D00000E94E21C812F1BC083E019C064E070E0B8
:103D1000CE0101960E94881C898186FF03C03CE089
:103D2000F32EE7CF84E0F82EE4CF40E052E060E0ED
:103D300070E080E10E94511D8111DACFDACF0F903F
:103D40000F900F900F90DF91CF911F910F91FF90E7
:103D5000EF900895FF920F931F93CF93DF93EB01A2
:103D6000BA01A901811103C08091000101C081E065
:103D700080FD36C08091BC0183FD07C0A9E0440FDF
:103D8000551F661F771FAA95D1F70230110518F04D
:103D9000F2E1FF2E02C0E1E1FE2E8F2D0E94511DA7
:103DA000811116C060E072E0CE010E94121D892BC5
:103DB00031F0DE5F015011090115110599F782E11B
:103DC000F81206C040E050E0BA018CE00E94511D9C
:103DD0000E94E21C81E090E0012B21F480E002C00F
:103DE00083E090E0DF91CF911F910F91FF900895B4
:103DF000CF92DF92EF92FF920F931F93CF93DF93B7
:103E0000EB0169017A01811103C08091000101C0B9
:103E100081E080FD4DC08091BC0183FD07C0B9E009
:103E2000CC0CDD1CEE1CFF1CBA95D1F7013011053E
:103E300099F4B701A60188E10E94511D811130C09B
:103E40006EEFCE010E94B41D31E020E0892B09F015
:103E500030E0032F122F24C0867031F0A80160E0FB
:103E600070E087E90E94511DB701A60189E10E9417
:103E7000511D811115C06CEFCE010E94B41D892B1C
:103E800031F0DE5F0150110901151105A1F76DEF49
:103E900080E090E00E94B41D892B11F401E010E055
:103EA0000E94E21C81E090E0012B21F480E002C03E
:103EB00083E090E0DF91CF911F910F91FF90EF9001
:103EC000DF90CF9008950F931F93CF93DF93CDB7DB
:103ED000DEB760970FB6F894DEBF0FBECDBF8A0184
:103EE000811103C08091000101C081E080FD81C08B
:103EF000613091F040F0633009F075C080E890E0E7
:103F0000A0E0B0E069C00E94F21C01E010E0892B43
:103F100009F46BC000E069C040E050E0BA0189E0FC
:103F20000E94511D882311F001E05EC060E170E045
:103F3000CE0101960E94121D892BB1F399819295B1
:103F4000969596959370888529855A859130D9F4F0
:103F50008F7390E0A0E0B0E0DC01992788270196FC
:103F6000A11DB11D30E0322F2227250F311D820FF8
:103F7000931FA11DB11DEAE0880F991FAA1FBB1F47
:103F8000EA95D1F729C02295269526952370F4E06D
:103F90008F9FC0011124820F911D01962F812370E4
:103FA00030E0322F2227330F330F820F931FA0E010
:103FB000B0E02E812F704B85441F4427441F240FEF
:103FC000352F3370330F230F275004C0880F991FEC
:103FD000AA1FBB1F2A95D2F7F80180839183A28381
:103FE000B38300E001C004E010E00E94E21CC801BD
:103FF00002C083E090E060960FB6F894DEBF0FBE7B
:10400000CDBFDF91CF911F910F91089593E89093C9
:10401000B00091E09093B1008093B3000895909325
:10402000CB018093CA0126E330E020930040009743
:1040300079F480EF90E09093C7018093C60180E40B
:1040400091E09093C9018093C80188E490E034C066
:104050008130910579F480E491E09093C7018093D9
:10406000C60180EF90E09093C9018093C80188EE6B
:1040700090E022C08230910579F480EF90E0909337
:10408000C7018093C60180E491E09093C9018093B9
:10409000C80188E890E010C0039781F480E491E0C3
:1040A0009093C7018093C60180EF90E09093C9017F
:1040B0008093C80188E290E0809300418AE290E01A
:1040C0008093004080E090E0909300418093004115
:1040D0008091C6019091C701019790930041809310
:1040E00000418BE290E08093004080E090E090936C
:1040F0000041809300418091C8019091C9010197CE
:1041000090930041809300410895CF93873750F4F6
:10411000883050F08D3350F48F3150F4803150F0AE
:10412000C2E009C086E702C088E004C0C0E003C066
:10413000C1E001C0C3E021EB30E020930040C09318
:104140000041682F70E080E090E00E94E3279B012F
:10415000AC0160E070E080EF94E40E944D270E9483
:10416000B52770E002C075956795CA95E2F7609330
:104170000041CF9108950F931F93CF93DF93CDB755
:10418000DEB728970FB6F894DEBF0FBECDBF2983E8
:104190003A834B835C836D837E838F8398876981A9
:1041A0007A812B813C814D815E818F819885EAE205
:1041B000F0E0E09300407093004160930041309341
:1041C000004120930041EBE2F0E0E0930040509387
:1041D0000041409300419093004180930041ECE204
:1041E000F0E0E09300402F5F3F4F261B370B019616
:1041F000841B950B2817390790F4682F6770629F0E
:10420000A001639F500D112473E0969587957A95D0
:10421000E1F7829FB001839F700D112411C0622FBE
:104220006770689FA001699F500D112463E0369567
:1042300027956A95E1F7289FB001299F700D1124F9
:10424000842F8770815028F0109300410093004123
:10425000F9CFCA0123E0969587952A95E1F7860F55
:10426000971F019708F110930041009300411093AC
:1042700000410093004110930041009300411093CE
:1042800000410093004110930041009300411093BE
:1042900000410093004110930041009300411093AE
:1042A000004100930041DDCF28960FB6F894DEBFA1
:1042B0000FBECDBFDF91CF911F910F910895EF9267
:1042C000FF920F931F93CF93DF93CDB7DEB728975D
:1042D0000FB6F894DEBF0FBECDBF29833A834B8360
:1042E0005C836D837E838F83988789819A81EB803D
:1042F000FC806D817E81AF81B8852AE230E0209319
:1043000000409093004180930041F0920041E09280
:1043100000412BE230E02093004070930041609315
:104320000041B0930041A09300412CE230E0209383
:104330000040E816F906A0F0A8019B018A01A21727
:10434000B30760F04E5F5F4FF80100811181109359
:104350000041009300412F5F3F4FF0CF0196E9CF1E
:1043600028960FB6F894DEBF0FBECDBFDF91CF9178
:104370001F910F91FF90EF9008950F931F93CF938C
:10438000DF93CDB7DEB728970FB6F894DEBF0FBE28
:10439000CDBF1092CD011092CC011092CF0110929E
:1043A000CE011A8219828091C6019091C7010197AE
:1043B000482F9C838B831E821D828091C80190911F
:1043C000C901019798878F830091D2011091D30181
:1043D00020E03A815C8160E07E8198850E94BB206C
:1043E00028960FB6F894DEBF0FBECDBFDF91CF91F8
:1043F0001F910F91089586E08093750080E8809367
:1044000074003F9A249A8FEC97E00197F1F700C06F
:10441000000047988FE39CE90197F1F700C0000086
:10442000479A9FEF2DEE82E0915020408040E1F7C7
:1044300000C0000088E290E08093004081E190E0BD
:10444000809300409FEF26E781E09150204080401C
:10445000E1F700C0000021E030E08BEC90E08093B9
:1044600000402093004180EC90E08093004088E081
:1044700096E2909300418093004120E130E081EC8E
:1044800090E0809300402093004185EC90E0809381
:1044900000408EE395E3909300418093004125EB2B
:1044A00030E087EC90E0809300402093004121E0D1
:1044B00030E086EF90E0809300402093004180E060
:1044C00090E0909300418093004125E530E08AE33D
:1044D00090E0809300402093004181E090E00E94B2
:1044E0000F200E94BD211092CD011092CC0110929C
:1044F000CF011092CE011092D3011092D2018FEF12
:104500009FEF9093D1018093D00189E290E0809356
:1045100000409FE728E381E0915020408040E1F790
:1045200000C0000020E030E085E390E08093004090
:1045300020930041EAE6F0E08081806280832C9A3B
:104540000895CF92DF92EF92FF920F931F93CF9334
:10455000DF93F091CC01E091CD012091CE0130911B
:10456000CF018A30E1F41092CD011092CC01285F86
:104570003F4F3093CF012093CE018091C80190919D
:10458000C9012817390708F49FC0DF91CF911F9107
:104590000F91FF90EF90DF90CF900C94BD2190EEA3
:1045A000980F9F3508F090C0B901695F7F4F992738
:1045B00087FD90958097A5E0A89FA001A99F500D29
:1045C000112448565F4F8BE290E080930040309377
:1045D00000412093004170930041609300418F2F70
:1045E0009E2F8C010C5F1F4FEAE2EE2EF12CFCE2B5
:1045F000CF2ED12C481B590B0817190750F1E09208
:10460000004090930041809300419093004180933B
:104610000041C0920040FA01E80FF91FE491D9016E
:10462000F1E06A177B0798F0CF2FCE2329F0C091D5
:10463000D001D091D10104C0C091D201D091D30159
:10464000D0930041C09300411196FF0FEACF01962D
:10465000D3CF4AE250E040930040909300418093D2
:10466000004190930041809300418CE290E0809360
:1046700000406217730758F08091D2019091D301E6
:1046800090930041809300412F5F3F4FF2CF809184
:10469000CC019091CD0106969093CD018093CC01F1
:1046A0002091C6013091C7018217930768F01092DC
:1046B000CD011092CC018091CE019091CF0108964E
:1046C0009093CF018093CE01DF91CF911F910F91F5
:1046D000FF90EF90DF90CF9008951F93CF93DF93DB
:1046E000EC0110E0FE01E10FF11D8081882321F033
:1046F0000E94A1221F5FF6CFDF91CF911F910895F5
:104700001F93CF93DF93EC017093CD016093CC01A5
:104710005093CF014093CE0110E0FE01E10FF11D57
:104720008081882321F00E94A1221F5FF6CFDF91B4
:10473000CF911F910895EF92FF920F931F93CF9304
:10474000DF93C0E0D0E000E810E0E82EF12C980103
:104750000C2E02C0359527950A94E2F72E213F21B1
:10476000232B11F081E301C08EE20E94A122219649
:10477000C830D10561F7DF91CF911F910F91FF9064
:10478000EF9008950F931F93CF93DF938C010E94B6
:10479000BD21CEECD1E02091C8013091C901245156
:1047A000310939832883E0910301F091040180915C
:1047B000010190910201E80FF91F319720E2208357
:1047C000E0910301F09104018091010190910201B7
:1047D000E80FF91F21832091010130910201200F80
:1047E000311F3093020120930101E0910301F09108
:1047F0000401E20FF31F31978BE58083E091030101
:10480000F09104018091010190910201E80FF91FDC
:104810008DE5818380910301909104010E946D23B5
:1048200084E491E00E946D231982188282E294E070
:10483000DF91CF911F910F910C946D23CF93DF9354
:10484000EC0184E00E946626882321F082E491E056
:104850000E946D2388E00E947126882321F082E067
:1048600090E00E94C22380E20E947126882321F0FA
:104870008EEF9FEF0E94C22380E10E94662684E0B3
:104880000E94662680E80E9480268823B1F1E0918C
:104890000301F09104018091010190910201E80F60
:1048A000F91F80812091BD013091BE018F3529F41F
:1048B000F901EE5DFB4F80E211C08C3361F42150B1
:1048C00031093093BE012093BD01F901EE5DFB4F2C
:1048D00080E280830AC0F901EE5DFB4F80832F5F89
:1048E0003F4F3093BE012093BD011092CF01109233
:1048F000CE0180E090E00E94C223CE01DF91CF91F3
:104900000895CF93C82F8A3019F48DE00E94812436
:104910008091C80085FFFCCFC093CE008C2F9927D3
:1049200087FD9095CF9108958091C80087FFFCCFB7
:104930008091CE0090E008951092CD0083E38093A3
:10494000CC0088E18093C90086E08093CA0085E1AD
:1049500091E090930F0580930E059093110580933D
:10496000100587E091E090930D0580930C05089564
:10497000E1E6F0E080E8808310820E949C240E949F
:10498000FB210E9481250C9437261F920F920FB6AF
:104990000F9211240BB60F92CF92DF92EF92FF92FB
:1049A0000F931F932F933F934F935F936F937F9337
:1049B0008F939F93AF93BF93CF93DF93EF93FF9327
:1049C000F12C8DE0E82EDD24D394CC24CA94CF2D95
:1049D000D0E080912E01992787FD90958C179D0737
:1049E0000CF474C0EC9EF001ED9EF00D1124E9571B
:1049F000FB4F458156816781708581819281A381BA
:104A0000B481481759076A077B0708F44BC0A09187
:104A1000C101B0E0AD5DBE4F8C91F81608F042C008
:104A2000808181113FC0F894EC9EF001ED9EF00D65
:104A30001124E957FB4F1582168217821086D08207
:104A4000E091C101EF5FE093C101F0E0ED5DFE4F49
:104A5000F0827894EC9E8001ED9E100D1124095790
:104A60001B4FD8011996ED91FC911A971B968D91C9
:104A70009C911C970995F80194878387F894EC9E84
:104A8000F001ED9EF00D1124E957FB4F108280914B
:104A9000C101E82FF0E0ED5DFE4FC08281508093B0
:104AA000C1017894EC9EF001ED9EF00D1124E957C0
:104AB000FB4F85819681A781B0850196A11DB11D0F
:104AC00085839683A783B087F39481CFFF91EF917D
:104AD000DF91CF91BF91AF919F918F917F916F9116
:104AE0005F914F913F912F911F910F91FF90EF9008
:104AF000DF90CF900F900BBE0F900FBE0F901F90C6
:104B0000189583E884BD85B5836085BD81E0809379
:104B10006E0016BC8FEF87BD0895882319F087BDFE
:104B2000279A089527980895EF92FF920F931F9365
:104B3000CF93DF937C018901C0912E01DD27C7FD52
:104B4000D0952196CA30D10554F5CB01BA010E9407
:104B5000E12725E732E04AEF5EE30E946F2820E07C
:104B600030E040E05FE30E94E9260E94B5272DE097
:104B70002C9FF0012D9FF00D1124E957FB4F61830D
:104B8000728383839483658376838783908710827F
:104B9000F286E18614870387C0932E0102C0CFEF0F
:104BA000DFEFCE01DF91CF911F910F91FF90EF903A
:104BB0000895F8943CB135FD02C020E001C023E027
:104BC00034FF02C031E023273091C501321B30FF92
:104BD00009C02093C5012091860421503270230F13
:104BE0002093860478940895F89450910B0546B16B
:104BF0002CB133B12F67406C24233F6B23232095C6
:104C000025273091C401322330953093C40140915F
:104C1000C301422343274093C3012323242330911C
:104C20000B05322730930B053091090540910B0598
:104C30004223432B4093090520910B052C7F19F447
:104C40002CE32093C2012091C201215019F020933E
:104C5000C2010BC02AE02093C20130910A052091C5
:104C60000B052C7F232B20930A05789408958DB192
:104C70008F7C8DB98EB180638EB96F98779A87B12A
:104C8000837C87B988B18C6388B926982E9A20E0F6
:104C900030E042E050E060E070E089ED95E20E9493
:104CA000942520E030E04AE050E060E070E084EFDE
:104CB00095E20C949425F894809186049091860452
:104CC000917090938604789485950895F8949091C6
:104CD00009058923909109059827909309057894EF
:104CE0000895F89490910A05892390910A059827D0
:104CF00090930A057894089590910B05892308955F
:104D0000F89490910B05909589230C9466260E9447
:104D100071260C9466260E94B82421E030E044E617
:104D200050E060E070E08EE194E20E949425789477
:104D30008091C8019091C90144979093CF018093CD
:104D4000CE0180910301909104010E946D2384E4BF
:104D500091E00E946D23FFCFA1E21A2EAA1BBB1B7C
:104D6000FD010DC0AA1FBB1FEE1FFF1FA217B30737
:104D7000E407F50720F0A21BB30BE40BF50B661F4D
:104D8000771F881F991F1A9469F760957095809511
:104D900090959B01AC01BD01CF0108950E94D926D9
:104DA000A59F900DB49F900DA49F800D911D11247F
:104DB0000895A29FB001B39FC001A39F700D811DF4
:104DC0001124911DB29F700D811D1124911D089514
:104DD0005058BB27AA270ED048C139D130F03ED158
:104DE00020F031F49F3F11F41EF42EC10EF4E09533
:104DF000E7FB24C1E92F4AD180F3BA176207730792
:104E00008407950718F071F49EF562C10EF4E095E1
:104E10000B2EBA2FA02D0B01B90190010C01CA0174
:104E2000A0011124FF27591B99F0593F50F4503E1F
:104E300068F11A16F040A22F232F342F4427585F11
:104E4000F3CF469537952795A795F0405395C9F729
:104E50007EF41F16BA0B620B730B840BBAF09150E1
:104E6000A1F0FF0FBB1F661F771F881FC2F70EC080
:104E7000BA0F621F731F841F48F487957795679553
:104E8000B795F7959E3F08F0B3CF9395880F08F03C
:104E90009927EE0F9795879508950CD0E6C0DED040
:104EA00040F0D5D030F021F45F3F19F0C7C0511168
:104EB00010C1CAC0EBD098F39923C9F35523B1F3BD
:104EC000951B550BBB27AA2762177307840738F079
:104ED0009F5F5F4F220F331F441FAA1FA9F333D0D8
:104EE0000E2E3AF0E0E830D091505040E695001C8C
:104EF000CAF729D0FE2F27D0660F771F881FBB1F48
:104F0000261737074807AB07B0E809F0BB0B802D21
:104F1000BF01FF2793585F4F2AF09E3F510568F06D
:104F20008DC0D7C05F3FECF3983EDCF38695779554
:104F30006795B795F7959F5FC9F7880F911D96956F
:104F4000879597F90895E1E0660F771F881FBB1FCB
:104F5000621773078407BA0720F0621B730B840B78
:104F6000BA0BEE1F88F7E095089598D088F09F5708
:104F700090F0B92F9927B751A0F0D1F0660F771FA5
:104F8000881F991F1AF0BA95C9F712C0B13081F085
:104F90009FD0B1E008959CC0672F782F8827B85F15
:104FA00039F0B93FCCF3869577956795B395D9F7E6
:104FB0003EF490958095709561957F4F8F4F9F4FF0
:104FC0000895E89409C097FB3EF4909580957095FC
:104FD00061957F4F8F4F9F4F9923A9F0F92F96E945
:104FE000BB279395F695879577956795B795F111BA
:104FF000F8CFFAF4BB0F11F460FF1BC06F5F7F4F57
:105000008F4F9F4F16C0882311F096E911C0772368
:1050100021F09EE8872F762F05C0662371F096E871
:10502000862F70E060E02AF09A95660F771F881F40
:10503000DAF7880F9695879597F9089597F99F67FE
:1050400080E870E060E008959FEF80EC0895002410
:105050000A941616170618060906089500240A94DD
:1050600012161306140605060895092E0394000C63
:1050700011F4882352F0BB0F40F4BF2B11F460FFF2
:1050800004C06F5F7F4F8F4F9F4F089557FD90581B
:10509000440F551F59F05F3F71F04795880F97FBFC
:1050A000991F61F09F3F79F08795089512161306B6
:1050B0001406551FF2CF4695F1DF08C016161706E5
:1050C0001806991FF1CF869571056105089408951A
:1050D000E894BB2766277727CB0197F908950BD073
:1050E000C4CFB5DF28F0BADF18F0952309F0A6CFBA
:1050F000ABCF1124EECFCADFA0F3959FD1F3950F6C
:1051000050E0551F629FF001729FBB27F00DB11D4B
:10511000639FAA27F00DB11DAA1F649F6627B00DDB
:10512000A11D661F829F2227B00DA11D621F739FC4
:10513000B00DA11D621F839FA00D611D221F749FD2
:105140003327A00D611D231F849F600D211D822F19
:10515000762F6A2F11249F5750408AF0E1F0882360
:105160004AF0EE0FFF1FBB1F661F771F881F91506D
:105170005040A9F79E3F510570F060CFAACF5F3F26
:10518000ECF3983EDCF3869577956795B795F795A0
:10519000E7959F5FC1F7FE2B880F911D9695879528
:0851A00097F90895F894FFCF80
:1051A800010100460182010000000100000000002A
:1051B8000094240000000000020000000081240088
:1051C800000000FF00000000000000000000FFFFDA
:1051D800000000222A2B2C3A3B3C3D3E3F5B5D7C85
:1051E8007F0055700A005B615D6220632064206562
:1051F8002066206720682069206A206B206C206D5B
:10520800206E206F2070207120722073207420750A
:105218002076207720782079207A200A205F203C89
:10522800200020412042204320442045204620479A
:1052380020482049204A204B204C204D204E204F0A
:1052480020502051205220532054205520562057BA
:0852580020582059205A2000C3
:00000001FF
